:100000001402002051060000BD060000C5060000D5
:10001000CD060000CD060000CD0600000000000067
:10002000000000000000000000000000CD060000FD
:10003000CD06000000000000CD060000CD06000047
:10004000CD060000CD060000CD060000CD06000064
:10005000CD060000CD060000CD060000CD06000054
:10006000CD060000CD060000CD060000CD06000044
:10007000CD060000CD060000CD060000CD06000034
:10008000CD060000CD060000CD060000CD06000024
:10009000CD060000CD060000CD060000CD06000014
:1000A000CD060000CD060000CD060000CD06000004
:1000B000CD060000CD060000CD060000CD060000F4
:1000C000CD060000CD060000CD060000CD060000E4
:1000D000CD060000CD060000CD060000CD060000D4
:1000E000CD060000CD060000CD060000CD060000C4
:1000F000CD060000CD060000CD060000CD060000B4
:10010000CD060000CD060000CD060000CD060000A3
:10011000CD060000CD060000CD060000CD06000093
:10012000CD060000CD060000CD060000CD06000083
:10013000CD060000CD060000CD060000CD06000073
:1001400000000000000000000000000000000000AF
:10015000CD060000CD060000CD060000CD06000053
:10016000000000000000000000000000000000008F
:10017000000000000000000000000000000000007F
:10018000000000000000000000000000000000006F
:10019000000000000000000000000000000000005F
:1001A000000000000000000000000000000000004F
:1001B000CD060000CD060000CD060000CD060000F3
:1001C000CD060000CD060000CD060000CD060000E3
:1001D000CD060000CD060000CD060000CD060000D3
:1001E000CD060000CD060000CD060000CD060000C3
:1001F000CD060000CD060000CD060000CD060000B3
:10020000CD060000CD060000CD0600000000000075
:10021000CD060000CD060000CD060000CD06000092
:10022000CD060000CD060000CD060000CD06000082
:10023000CD060000CD060000CD060000CD06000072
:10024000CD060000CD060000CD060000CD06000062
:10025000CD060000CD060000CD060000CD06000052
:10026000CD060000CD060000CD06000080B483B0AE
:1002700000AF2F4A2E4B1B6843F0010313602C4B39
:100280001B687B602B4A2B4B1B6823F0E003136039
:10029000294A294B1B68C3F313031360274A274BD2
:1002A0001B6843F0E0031360254A254B1B6823F0CD
:1002B000E0031360234A234B1B6843F0E003136001
:1002C000214A214B1B6843F0E0031360184A184B86
:1002D0001B6843F002031360154B1B687B601B4ACD
:1002E0001A4B1B6823F0FF031360194B1B68184B54
:1002F00000221A60174A174B1B6843F0FF03136074
:10030000154A154B1B6823F0FF031360134A134B68
:100310001B6843F0FF031360114A114B1B6843F045
:10032000FF03136000BF0C37BD465DF8047B7047C8
:1003300008E10F40284500402C45004000440040A3
:10034000204400401C45004008450040285500401E
:100350002C55004000540040205400401C550040E3
:100360000855004080B582B000AF0346FB71124AC9
:10037000114B1B6823F0E0031360104AFB791360F4
:100380000D4A0D4B1B6843F0800313600A4A0A4B69
:100390001B6823F060031360132000F0D9F8064AAD
:1003A000054B1B6823F0E0031360012000F004F903
:1003B00000BF0837BD4680BDFC430040FC530040F1
:1003C00080B582B000AF0346FB710F4AFB79136022
:1003D0000E4A0E4B1B6843F0C00313600B4A0B4BD5
:1003E0001B6823F020031360132000F0B1F8074AC4
:1003F000064B1B6823F0E0031360012000F0DCF8DB
:1004000000BF0837BD4680BDFC530040FC430040A0
:1004100080B500AFFFF72AFF0F2000F0CDF838209D
:10042000FFF7A0FF052000F0C7F83820FFF79AFF7C
:10043000962000F0ABF80C20FFF794FF0120FFF7A7
:1004400091FF0620FFF78EFF322000F0B5F800BFC5
:1004500080BD00BF80B582B000AF786006E07B68E9
:100460005A1C7A601B781846FFF7AAFF7B681B7836
:10047000002BF4D100BF0837BD4680BD80B582B0E7
:1004800000AF03463960FB713B68DAB2FB79134475
:10049000DBB21846FFF766FF00BF0837BD4680BDD8
:1004A00080B400AF1F4A1F4B1B6843F0004313602A
:1004B0001C4A1C4B1B6843F4006313601A4A1A4B16
:1004C0001B6823F4F86303F5A8631360154A154B02
:1004D0001B6823F070031360124A124B1B6823F44D
:1004E000005313600F4A0F4B1B6843F080431360A7
:1004F0000C4A0C4B1B6823F0FE5303F1807313600E
:1005000000BF0A4B1B6803F04003002BF9D0054ADB
:10051000044B1B6823F40063136000BFBD465DF805
:10052000047B704770E00F4060E00F4050E00F40E8
:1005300080B400AF054B00221A60044B05221A60FC
:1005400000BFBD465DF8047B704700BF10E000E0CF
:1005500080B483B000AF7860094A7B68013B1360C8
:10056000084B00221A6000BF074B1B6803F480335E
:10057000002BF9D000BF0C37BD465DF8047B7047F7
:1005800014E000E018E000E010E000E080B584B086
:1005900000AF78600023FB6005E05020FFF7D8FF34
:1005A000FB680133FB60FA687B689A42F5D300BFB1
:1005B0001037BD4680BD00BF80B584B000AF786005
:1005C0000023FB6005E00748FFF7C2FFFB6801332B
:1005D000FB60FA687B689A42F5D300BF1037BD46CE
:1005E00080BD00BF8038010080B588B000AF002317
:1005F000FB610423BB6101237B6101233B61002379
:10060000FB600023BB6000237B6000233B60FFF79F
:1006100047FFFFF78DFFFFF7FBFE00218020FFF76C
:100620002DFF094B1B681846FFF714FF0D21802092
:10063000FFF724FF054B1B681846FFF70BFF4FF42D
:100640007A70FFF7B9FFFEE70800002010000020D5
:1006500080B582B000AF134B7B60134B3B6007E06B
:100660003B681A1D3A607A68111D796012681A6039
:100670003B680E4A9342F3D30E480F494FF00002F5
:100680008842B8BF40F8042BFADB094A084B1B68C4
:1006900043F470031360FFF7A7FF00BF0837BD46A0
:1006A00080BD00BFEC060000000000201400002008
:1006B00088ED00E0140000201402002080B400AF98
:1006C000FEE700BF80B400AFFEE700BF80B400AF1C
:1006D000FEE700BFF8B500BFF8BC08BC9E467047F7
:0C06E000F8B500BFF8BC08BC9E4670478F
:1006EC004D45525400000000000000202E00000078
:0406FC000C000020CE
:00000001FF
